{
  "abi": [
    {
      "anonymous": false,
      "inputs": [
        {
          "indexed": true,
          "internalType": "address",
          "name": "from",
          "type": "address"
        },
        {
          "indexed": false,
          "internalType": "uint256",
          "name": "timestamp",
          "type": "uint256"
        },
        {
          "indexed": false,
          "internalType": "string",
          "name": "joke",
          "type": "string"
        }
      ],
      "name": "NewJoke",
      "type": "event"
    },
    {
      "inputs": [],
      "name": "getAllJokes",
      "outputs": [
        {
          "components": [
            {
              "internalType": "address",
              "name": "joker",
              "type": "address"
            },
            {
              "internalType": "string",
              "name": "joke",
              "type": "string"
            },
            {
              "internalType": "uint256",
              "name": "timestamp",
              "type": "uint256"
            }
          ],
          "internalType": "struct Jokes.Joke[]",
          "name": "",
          "type": "tuple[]"
        }
      ],
      "stateMutability": "view",
      "type": "function"
    },
    {
      "inputs": [],
      "name": "getTotalJokes",
      "outputs": [
        {
          "internalType": "uint256",
          "name": "",
          "type": "uint256"
        }
      ],
      "stateMutability": "view",
      "type": "function"
    },
    {
      "inputs": [
        {
          "internalType": "string",
          "name": "_joke",
          "type": "string"
        }
      ],
      "name": "newJoke",
      "outputs": [],
      "stateMutability": "payable",
      "type": "function"
    },
    {
      "inputs": [],
      "name": "totalJokes",
      "outputs": [
        {
          "internalType": "uint256",
          "name": "",
          "type": "uint256"
        }
      ],
      "stateMutability": "view",
      "type": "function"
    },
    {
      "stateMutability": "payable",
      "type": "receive"
    }
  ],
  "bytecode": {
    "object": "0x608060405234801561001057600080fd5b50610733806100206000396000f3fe6080604052600436106100435760003560e01c806349b7a1161461004f578063696ff25c146100645780639e599c041461008f578063ebdd3748146100ae57600080fd5b3661004a57005b600080fd5b61006261005d3660046103ea565b6100c4565b005b34801561007057600080fd5b506100796102c3565b60405161008691906104e1565b60405180910390f35b34801561009b57600080fd5b506000545b604051908152602001610086565b3480156100ba57600080fd5b506100a060005481565b60016000808282546100d6919061056d565b90915550506040805160608101825233815260208101838152429282019290925260018054808201825560009190915281517fb10e2d527612073b26eecdfd717e6a320cf44b4afac2b0732d9fcbe2b7fa0cf6600390920291820180546001600160a01b0319166001600160a01b0390921691909117815592519192917fb10e2d527612073b26eecdfd717e6a320cf44b4afac2b0732d9fcbe2b7fa0cf790910190610182908261061c565b506040918201516002909101555133907f8bd8a26db58e8d8c2f520500e46ebd47a1c9baa42722d81ed6c583635d21298e906101c190429085906106dc565b60405180910390a2662386f26fc10000478111156102265760405162461bcd60e51b815260206004820152601d60248201527f4f7574206f662065746865722c2074727920616761696e206c6174657200000060448201526064015b60405180910390fd5b604051600090339083908381818185875af1925050503d8060008114610268576040519150601f19603f3d011682016040523d82523d6000602084013e61026d565b606091505b50509050806102be5760405162461bcd60e51b815260206004820152601860248201527f4661696c656420746f2070617920746865206a6f6b6572210000000000000000604482015260640161021d565b505050565b60606001805480602002602001604051908101604052809291908181526020016000905b828210156103cb57600084815260209081902060408051606081019091526003850290910180546001600160a01b03168252600181018054929391929184019161033090610594565b80601f016020809104026020016040519081016040528092919081815260200182805461035c90610594565b80156103a95780601f1061037e576101008083540402835291602001916103a9565b820191906000526020600020905b81548152906001019060200180831161038c57829003601f168201915b50505050508152602001600282015481525050815260200190600101906102e7565b50505050905090565b634e487b7160e01b600052604160045260246000fd5b6000602082840312156103fc57600080fd5b813567ffffffffffffffff8082111561041457600080fd5b818401915084601f83011261042857600080fd5b81358181111561043a5761043a6103d4565b604051601f8201601f19908116603f01168101908382118183101715610462576104626103d4565b8160405282815287602084870101111561047b57600080fd5b826020860160208301376000928101602001929092525095945050505050565b6000815180845260005b818110156104c1576020818501810151868301820152016104a5565b506000602082860101526020601f19601f83011685010191505092915050565b60006020808301818452808551808352604092508286019150828160051b87010184880160005b8381101561055f57888303603f19018552815180516001600160a01b03168452878101516060898601819052906105418287018261049b565b92890151958901959095525094870194925090860190600101610508565b509098975050505050505050565b8082018082111561058e57634e487b7160e01b600052601160045260246000fd5b92915050565b600181811c908216806105a857607f821691505b6020821081036105c857634e487b7160e01b600052602260045260246000fd5b50919050565b601f8211156102be57600081815260208120601f850160051c810160208610156105f55750805b601f850160051c820191505b8181101561061457828155600101610601565b505050505050565b815167ffffffffffffffff811115610636576106366103d4565b61064a816106448454610594565b846105ce565b602080601f83116001811461067f57600084156106675750858301515b600019600386901b1c1916600185901b178555610614565b600085815260208120601f198616915b828110156106ae5788860151825594840194600190910190840161068f565b50858210156106cc5787850151600019600388901b60f8161c191681555b5050505050600190811b01905550565b8281526040602082015260006106f5604083018461049b565b94935050505056fea26469706673582212204ef9fa8861db44c0d6fc1db6567c2a828c66c2c44080891bca0ca0527d7cd0bc64736f6c63430008110033",
    "linkReferences": {}
  },
  "methodIdentifiers": {
    "getAllJokes()": "696ff25c",
    "getTotalJokes()": "9e599c04",
    "newJoke(string)": "49b7a116",
    "totalJokes()": "ebdd3748"
  },
  "id": 14
}